:100000000C9462000C948A000C948A000C948A0070
:100010000C948A000C948A000C948A000C948A0038
:100020000C948A000C948A000C948A000C948A0028
:100030000C948A000C948A000C948A000C948A0018
:100040000C94DA020C948A000C944A030C94240356
:100050000C948A000C948A000C948A000C948A00F8
:100060000C948A000C948A000000000024002700F1
:100070002A0000000000250028002B0000000000DE
:1000800023002600290004040404040404040202DA
:100090000202020203030303030301020408102007
:1000A0004080010204081020010204081020000012
:1000B0000008000201000003040700000000000027
:1000C0000000AF0511241FBECFEFD8E0DEBFCDBFCB
:1000D00022E0A8E5B1E001C01D92AC30B207E1F723
:1000E00011E0A0E0B1E0E4E8F0E102C005900D927B
:1000F000A835B107D9F710E0C2E6D0E004C02197D7
:10010000FE010E944806C136D107C9F70E947C0350
:100110000C9440080C940000833081F028F4813066
:1001200099F08230A9F008958730A9F08830C9F09D
:100130008430B1F4809180008F7D03C08091800075
:100140008F7780938000089584B58F7784BD08955C
:1001500084B58F7DFBCF8091B0008F778093B00006
:1001600008958091B0008F7DF9CF8E508064809388
:100170007C0080917A00806480937A0080917A007C
:1001800086FDFCCF809178009091790008953FB76B
:10019000F8948091040290910502A0910602B0911A
:1001A000070226B5A89B05C02F3F19F00196A11D97
:1001B000B11D3FBFBA2FA92F982F8827BC01CD01B1
:1001C000620F711D811D911D42E0660F771F881F10
:1001D000991F4A95D1F70895AF92BF92CF92DF92BF
:1001E000EF92FF920F931F93CF93DF936C017B01EC
:1001F0008B01040F151FEB015E01AE18BF08C0177D
:10020000D10759F06991D601ED91FC910190F081EF
:10021000E02DC6010995892B79F7C501DF91CF91B2
:100220001F910F91FF90EF90DF90CF90BF90AF9014
:100230000895FC01538D448D252F30E0842F90E0EC
:10024000821B930B541710F0CF96089501970895D1
:10025000FC01918D828D981761F0A28DAE0FBF2F9A
:10026000B11D5D968C91928D9F5F9F73928F90E0F0
:1002700008958FEF9FEF0895FC01918D828D98175F
:1002800031F0828DE80FF11D858D90E008958FEF9C
:100290009FEF0895FC01918D228D892F90E0805C65
:1002A0009F4F821B91098F73992708958EE591E0E6
:1002B0000E944A0121E0892B09F420E0822F089551
:1002C00080E090E0892B29F00E94560181110C9466
:1002D00000000895FC01A48DA80FB92FB11DA35AE9
:1002E000BF4F2C91848D90E001968F739927848F56
:1002F000A689B7892C93A089B1898C918370806479
:100300008C93938D848D981306C00288F389E02D19
:1003100080818F7D80830895EF92FF920F931F93CA
:10032000CF93DF93EC0181E0888F9B8D8C8D9813A8
:100330001AC0E889F989808185FF15C09FB7F894B4
:10034000EE89FF896083E889F98980818370806400
:1003500080839FBF81E090E0DF91CF911F910F914B
:10036000FF90EF900895F62E0B8D10E00F5F1F4F5A
:100370000F731127E02E8C8D8E110CC00FB607FC69
:10038000FACFE889F989808185FFF5CFCE010E94F7
:100390006A01F1CFEB8DEC0FFD2FF11DE35AFF4FFA
:1003A000F0829FB7F8940B8FEA89FB898081806285
:1003B000CFCFCF93DF93EC01888D8823B9F0AA8942
:1003C000BB89E889F9898C9185FD03C0808186FD10
:1003D0000DC00FB607FCF7CF8C9185FFF2CF80815F
:1003E00085FFEDCFCE010E946A01E9CFDF91CF9169
:1003F00008950F931F93CF93DF93EC018881998128
:10040000009759F02A813B812617370730F081E0A9
:10041000DF91CF911F910F9108958B016F5F7F4FF7
:100420000E947307009759F0998388831B830A837E
:100430002C813D81232B59F7FC011082E8CF80E00D
:10044000E7CFEF92FF920F931F93CF93DF93611546
:10045000710541F480E0DF91CF911F910F91FF90E2
:10046000EF90089541155105B1F07B01EC010C812D
:100470001D81040F151FB8010E94F901882351F353
:10048000288139818C819D81B701820F931F0E9441
:1004900039081D830C8381E0DECFCF93DF93EC011D
:1004A00088819981009711F00E94EA0619821882CA
:1004B0001D821C821B821A82DF91CF910895CF92F8
:1004C000DF92EF92FF920F931F93CF93DF93CDB7FD
:1004D000DEB762970FB6F894DEBF0FBECDBF8C01BA
:1004E000CB01F801118210821382128215821482CC
:1004F0004AE09E012F5F3F4F6901B9010E94DC0570
:10050000F60101900020E9F731977F01EC18FD0812
:10051000B701C8010E94F901811112C0C8010E94EF
:100520004D0262960FB6F894DEBF0FBECDBFDF91CD
:10053000CF911F910F91FF90EF90DF90CF90089592
:10054000F801F582E482B601808191810E94390828
:10055000E8CFCF93DF93EC01FB0101900020E9F796
:100560003197AF01461B570B0E942102811103C036
:10057000CE010E944D02CE01DF91CF910895CF931D
:10058000DF93EC01FB0144815581608171810E9400
:100590002102811103C0CE010E944D02CE01DF91E4
:1005A000CF910895FC0180819181009711F00C9406
:1005B000EA0608951F920F920FB60F9211242F93FF
:1005C0003F938F939F93AF93BF938091000290913D
:1005D0000102A0910202B09103023091FF0123E0D9
:1005E000230F2D3758F50196A11DB11D2093FF0152
:1005F0008093000290930102A0930202B093030241
:100600008091040290910502A0910602B091070228
:100610000196A11DB11D8093040290930502A09341
:100620000602B0930702BF91AF919F918F913F91C6
:100630002F910F900FBE0F901F90189526E8230F53
:100640000296A11DB11DD2CF1F920F920FB60F922D
:1006500011242F933F934F935F936F937F938F93C7
:100660009F93AF93BF93EF93FF938EE591E00E942A
:100670006A01FF91EF91BF91AF919F918F917F910F
:100680006F915F914F913F912F910F900FBE0F90FF
:100690001F9018951F920F920FB60F9211242F934F
:1006A0008F939F93EF93FF93E0916E01F0916F0111
:1006B0008081E0917401F091750182FD1BC09081F1
:1006C000809177018F5F8F7320917801821741F0BD
:1006D000E0917701F0E0E25AFE4F958F8093770129
:1006E000FF91EF919F918F912F910F900FBE0F90DF
:1006F0001F9018958081F4CFCF93DF93CDB7DEB7ED
:10070000A4970FB6F894DEBF0FBECDBF789484B522
:10071000826084BD84B5816084BD85B5826085BDFD
:1007200085B5816085BD80916E00816080936E008B
:10073000109281008091810082608093810080917D
:10074000810081608093810080918000816080932E
:1007500080008091B10084608093B1008091B000EE
:1007600081608093B00080917A00846080937A00E9
:1007700080917A00826080937A0080917A00816013
:1007800080937A0080917A00806880937A0010923A
:10079000C100E0916E01F0916F0182E08083E091F1
:1007A0006A01F0916B011082E0916C01F0916D0192
:1007B0008FEC808310927601E0917201F0917301C9
:1007C00086E08083E0917001F09171018081806109
:1007D0008083E0917001F091710180818860808355
:1007E000E0917001F0917101808180688083E091D7
:1007F0007001F091710180818F7D808342EA50E029
:10080000FA0164912EE830E0F90184918823C9F05F
:1008100090E0880F991FFC01E859FF4FA591B49112
:10082000FC01EE58FF4F059114917FB7F8949C910D
:10083000862F809598239C93F8019081892380834B
:100840007FBFE6EBF0E08491FA010491F901149185
:10085000112389F081110E948C00E12FF0E0EE0F4E
:10086000FF1FEE58FF4FA591B4918FB7F8944C91AC
:10087000402B4C938FBF43EA242E40E0342E5FE898
:10088000E52E50E0F52E60E0C62E60E0D62E0FEF8C
:1008900010E08EE00E94B50097FD01969595879532
:1008A0009A959093FE018093FD018FE00E94B50020
:1008B00097FD0196959587959A959093FC01809365
:1008C000FB01E7EBF0E08491F1019491F701B49022
:1008D000BB2061F081110E948C00EB2DF0E0EE0F47
:1008E000FF1FE458FF4FA591B4918C9141E050E077
:1008F00068E171E08EE591E00E94EC008091FD01DD
:100900009091FE0190935D0180935C0190935B0157
:1009100080935A0121E0181619060CF020E020936C
:10092000590120935801181619065CF49195819588
:10093000910990935D0180935C0190935B0180939A
:100940005A0180915C0190915D0191958195910989
:1009500090935D0180935C0120915A0130915B017D
:1009600044275527421B530B50935B0140935A0178
:100970006091FB017091FC0177FFCAC0861B970B49
:1009800090935D0180935C0180915C0190915D0189
:1009900097FFC6C010925D0110925C0180915A01D0
:1009A00090915B0197FFC6C010925B0110925A01B3
:1009B000CE0101960E945F026091580170E0CE0165
:1009C00007960E945F026091590170E0CE010D967A
:1009D0000E945F0260915A0170915B01CE014396C3
:1009E0000E945F0260915C0170915D01CE014996A9
:1009F0000E945F0218A21F8E1AA219A21CA21BA29B
:100A000069E070E0CE014F960E94F90181119CC00F
:100A1000CE014F960E944D02BE01675E7F4FCE0110
:100A20004F960E94BF0264E271E00E94A902BE01DB
:100A30006D5E7F4F0E94BF0263E371E00E94A902D6
:100A4000BE01635F7F4F0E94BF026FE371E00E94AF
:100A5000A902BE01695F7F4F0E94BF026BE471E093
:100A60000E94A902BE016F5F7F4F0E94BF02FC017E
:100A700044815581608171818EE591E00E94EC0096
:100A8000CE014F960E94D202CE0149960E94D20218
:100A9000CE0143960E94D202CE010D960E94D20250
:100AA000CE0107960E94D202CE0101960E94D20288
:100AB0000E94C7002B013C018AE0882E912CA12CBA
:100AC000B12C0E94C7006419750986099709683E10
:100AD000734081059105A8F3F1E08F1A9108A108F0
:100AE000B10828EE420E23E0521E611C711C8114D5
:100AF0009104A104B10429F7C114D10409F4C9CEA9
:100B00000E945601882309F4C4CE0E940000C1CE81
:100B1000CB01821B930B90935B0180935A0134CFDE
:100B20008F3F910509F00CF439CF10935D010093CC
:100B30005C0134CF8F3F910509F00CF439CF10934D
:100B40005B0100935A0134CF89E090E09CA38BA312
:100B50006AE171E08F8D98A10E9439085DCFEEE5C2
:100B6000F1E01382128288EE93E0A0E0B0E084838B
:100B70009583A683B7838AE091E09183808385EC97
:100B800090E09587848784EC90E09787868780EC57
:100B900090E0918B808B81EC90E0938B828B82EC48
:100BA00090E0958B848B86EC90E0978B868B118EF2
:100BB000128E138E148E0895BB274A3031F4992378
:100BC00022F4BDE2909581959F4F0C94E805BB27D8
:100BD000FB015527AA27880F991FAA1FA41710F0F9
:100BE000A41B83955051B9F7A05DAA3308F0A95D05
:100BF000A193009779F7B111B1931192CB010C94A5
:100C00000106DC01FC01672F71917723E1F7329730
:100C100004C07C916D9370836291AE17BF07C8F3D7
:100C200008952F923F924F925F926F927F928F9290
:100C30009F92AF92BF92CF92DF92EF92FF920F936B
:100C40001F93CF93DF93CDB7DEB7CA1BDB0B0FB675
:100C5000F894DEBF0FBECDBF09942A883988488832
:100C60005F846E847D848C849B84AA84B984C884C8
:100C7000DF80EE80FD800C811B81AA81B981CE0FBF
:100C8000D11D0FB6F894DEBF0FBECDBFED010895A4
:100C9000EE0FFF1F0590F491E02D09940F931F9321
:100CA000CF93DF938230910510F482E090E0E091E1
:100CB0000A02F0910B0230E020E0B0E0A0E03097B3
:100CC00099F42115310509F44AC0281B390B243049
:100CD0003105D8F58A819B816115710589F1FB0188
:100CE00093838283FE0111C040815181028113816F
:100CF00048175907E0F04817590799F4109761F021
:100D000012960C93129713961C933296CF01DF9193
:100D1000CF911F910F91089500930A0210930B0237
:100D2000F4CF2115310551F04217530738F0A901CE
:100D3000DB019A01BD01DF01F801C1CFEF01F9CF5D
:100D400090930B0280930A02CDCFFE01E20FF31FB6
:100D5000819391932250310939832883D7CF2091F1
:100D6000080230910902232B41F4209102013091B5
:100D70000301309309022093080220910001309171
:100D800001012115310541F42DB73EB74091040111
:100D900050910501241B350BE0910802F0910902E6
:100DA000E217F307A0F42E1B3F0B2817390778F042
:100DB000AC014E5F5F4F2417350748F04E0F5F1FA1
:100DC0005093090240930802819391939FCFF0E0E2
:100DD000E0E09CCFCF93DF930097E9F0FC013297DE
:100DE00013821282A0910A02B0910B02ED0130E051
:100DF00020E01097A1F420813181820F931F209170
:100E00000802309109022817390709F061C0F093F0
:100E10000902E0930802DF91CF910895EA01CE170D
:100E2000DF07E8F54A815B819E0141155105B1F765
:100E3000E901FB83EA8349915991C40FD51FEC174F
:100E4000FD0761F4808191810296840F951FE9016D
:100E500099838883828193819B838A83F0E0E0E099
:100E600012968D919C9113970097B9F52D913C9115
:100E70001197CD010296820F931F209108023091A5
:100E800009022817390739F6309751F510920B02ED
:100E900010920A02B0930902A0930802BCCFD38338
:100EA000C28340815181840F951FC817D90761F40F
:100EB0004E5F5F4F88819981480F591F518340834E
:100EC0008A819B81938382832115310509F0B0CFFC
:100ED000F0930B02E0930A029ECFFD01DC01C0CF2C
:100EE00013821282D7CFB0E0A0E0E9E7F7E00C94DC
:100EF00013068C01009751F4CB010E944E068C0121
:100F0000C801CDB7DEB7E0E10C942F06FC01E60F77
:100F1000F71F9C0122503109E217F30708F49DC026
:100F2000D901CD91DC911197C617D70798F0C5303C
:100F3000D10530F3CE0104978617970708F3C61B37
:100F4000D70B2297C193D1936D937C93CF010E94CD
:100F5000EA06D6CF5B01AC1ABD0A4C018C0E9D1E71
:100F6000A0910A02B0910B02512C412CF12CE12CE2
:100F7000109731F580910802909109028815990522
:100F800009F05CC04616570608F058C08091000171
:100F900090910101009741F48DB79EB740910401F3
:100FA00050910501841B950BE817F90708F055C00F
:100FB000F0930902E0930802F90171836083A0CFE6
:100FC0008D919C91119712966C90129713967C902C
:100FD0001397A815B90559F56C0142E0C40ED11C50
:100FE000CA14DB0420F1AC014A195B09DA0112963C
:100FF000159780F06282738251834083D9016D938B
:101000007C93E114F10471F0D7011396FC93EE93F5
:10101000129776CF22968C0F9D1FF90191838083C2
:10102000F301EFCFF0930B02E0930A0269CF481669
:10103000590608F42C017D01D3019ACFCB010E94FF
:101040004E067C01009749F0AE01B8010E943008BD
:10105000C8010E94EA06870153CF10E000E050CF9C
:10106000FB01DC0102C001900D9241505040D8F7C5
:101070000895FB01DC0101900D920020E1F7089535
:04108000F894FFCF12
:1010840000000C028000000000008C01EC0019013B
:10109400D9014A0128013C010A00412053706565C9
:1010A400643A20002020202020422053706565648B
:1010B4003A20002020202020726576413A2000202A
:1010C40020202020726576423A2000202020202013
:0810D4007475726E3A200000F1
:00000001FF
